{
  "address": "0xD322F7c15e6919B8249f951939E3345b8Cd4712F",
  "abi": [
    {
      "anonymous": false,
      "inputs": [
        {
          "indexed": true,
          "internalType": "address",
          "name": "previousOwner",
          "type": "address"
        },
        {
          "indexed": true,
          "internalType": "address",
          "name": "newOwner",
          "type": "address"
        }
      ],
      "name": "OwnershipTransferred",
      "type": "event"
    },
    {
      "anonymous": false,
      "inputs": [
        {
          "indexed": false,
          "internalType": "address",
          "name": "seatOwnerAdress",
          "type": "address"
        },
        {
          "indexed": false,
          "internalType": "uint256",
          "name": "index",
          "type": "uint256"
        },
        {
          "indexed": false,
          "internalType": "uint256",
          "name": "seatNumber",
          "type": "uint256"
        }
      ],
      "name": "TicketBooked",
      "type": "event"
    },
    {
      "inputs": [
        {
          "internalType": "string",
          "name": "_from",
          "type": "string"
        },
        {
          "internalType": "string",
          "name": "_to",
          "type": "string"
        },
        {
          "internalType": "string",
          "name": "_date",
          "type": "string"
        },
        {
          "internalType": "string",
          "name": "_duration",
          "type": "string"
        },
        {
          "internalType": "uint256",
          "name": "_price",
          "type": "uint256"
        },
        {
          "internalType": "uint256",
          "name": "_seatCapacity",
          "type": "uint256"
        }
      ],
      "name": "addBusTicket",
      "outputs": [],
      "stateMutability": "nonpayable",
      "type": "function"
    },
    {
      "inputs": [
        {
          "internalType": "uint256",
          "name": "seatNumber",
          "type": "uint256"
        },
        {
          "internalType": "uint256",
          "name": "index",
          "type": "uint256"
        }
      ],
      "name": "bookTicket",
      "outputs": [],
      "stateMutability": "payable",
      "type": "function"
    },
    {
      "inputs": [
        {
          "internalType": "uint256",
          "name": "",
          "type": "uint256"
        }
      ],
      "name": "busTickets",
      "outputs": [
        {
          "internalType": "string",
          "name": "from",
          "type": "string"
        },
        {
          "internalType": "string",
          "name": "to",
          "type": "string"
        },
        {
          "internalType": "string",
          "name": "date",
          "type": "string"
        },
        {
          "internalType": "string",
          "name": "duration",
          "type": "string"
        },
        {
          "internalType": "uint256",
          "name": "price",
          "type": "uint256"
        },
        {
          "internalType": "uint256",
          "name": "seatCapacity",
          "type": "uint256"
        },
        {
          "internalType": "uint256",
          "name": "availableSeat",
          "type": "uint256"
        }
      ],
      "stateMutability": "view",
      "type": "function"
    },
    {
      "inputs": [
        {
          "internalType": "uint256",
          "name": "index",
          "type": "uint256"
        }
      ],
      "name": "getSeatMap",
      "outputs": [
        {
          "internalType": "bool[]",
          "name": "",
          "type": "bool[]"
        }
      ],
      "stateMutability": "view",
      "type": "function"
    },
    {
      "inputs": [],
      "name": "id",
      "outputs": [
        {
          "internalType": "uint256",
          "name": "",
          "type": "uint256"
        }
      ],
      "stateMutability": "view",
      "type": "function"
    },
    {
      "inputs": [],
      "name": "owner",
      "outputs": [
        {
          "internalType": "address",
          "name": "",
          "type": "address"
        }
      ],
      "stateMutability": "view",
      "type": "function"
    },
    {
      "inputs": [],
      "name": "renounceOwnership",
      "outputs": [],
      "stateMutability": "nonpayable",
      "type": "function"
    },
    {
      "inputs": [
        {
          "internalType": "uint256",
          "name": "",
          "type": "uint256"
        },
        {
          "internalType": "address",
          "name": "",
          "type": "address"
        }
      ],
      "name": "seatOwner",
      "outputs": [
        {
          "internalType": "uint256",
          "name": "",
          "type": "uint256"
        }
      ],
      "stateMutability": "view",
      "type": "function"
    },
    {
      "inputs": [
        {
          "internalType": "address",
          "name": "newOwner",
          "type": "address"
        }
      ],
      "name": "transferOwnership",
      "outputs": [],
      "stateMutability": "nonpayable",
      "type": "function"
    },
    {
      "inputs": [],
      "name": "withdraw",
      "outputs": [],
      "stateMutability": "nonpayable",
      "type": "function"
    }
  ],
  "transactionHash": "0x06c29de1669fbc5dbafa259c37900aecf907779088307fa42434e4e8afdd8f84",
  "args": [],
  "numDeployments": 1,
  "solcInputHash": "e2a3f1063bd21aa6d13a6ebf7e3d0080",
  "bytecode": "0x6080604052600060015534801561001557600080fd5b5061001f33610024565b610074565b600080546001600160a01b038381166001600160a01b0319831681178455604051919092169283917f8be0079c531659141344cd1fd0a4f28419497f9722a3daafe3b4186f6b6457e09190a35050565b61125d806100836000396000f3fe6080604052600436106100915760003560e01c8063af640d0f11610059578063af640d0f14610148578063b9e9fa461461015e578063e7b6c2e01461017e578063f2fde38b146101ab578063fd4f1d2b146101cb57600080fd5b80630b82b594146100965780633ccfd60b146100e1578063715018a6146100f857806386ec37001461010d5780638da5cb5b14610120575b600080fd5b3480156100a257600080fd5b506100ce6100b1366004610d85565b600260209081526000928352604080842090915290825290205481565b6040519081526020015b60405180910390f35b3480156100ed57600080fd5b506100f66101fe565b005b34801561010457600080fd5b506100f661029d565b6100f661011b366004610db1565b6102b1565b34801561012c57600080fd5b506000546040516001600160a01b0390911681526020016100d8565b34801561015457600080fd5b506100ce60015481565b34801561016a57600080fd5b506100f6610179366004610e76565b61065b565b34801561018a57600080fd5b5061019e610199366004610f35565b610881565b6040516100d89190610f4e565b3480156101b757600080fd5b506100f66101c6366004610f94565b61091d565b3480156101d757600080fd5b506101eb6101e6366004610f35565b610993565b6040516100d89796959493929190610ffc565b610206610c05565b604051600090339047908381818185875af1925050503d8060008114610248576040519150601f19603f3d011682016040523d82523d6000602084013e61024d565b606091505b505090508061029a5760405162461bcd60e51b81526020600482015260146024820152732330b4b632b2103a379039b2b7321022ba3432b960611b60448201526064015b60405180910390fd5b50565b6102a5610c05565b6102af6000610c5f565b565b6000821161030c5760405162461bcd60e51b815260206004820152602260248201527f53656174206e756d626572206d7573742062652067726561746572207468616e604482015261020360f41b6064820152608401610291565b600354811061035d5760405162461bcd60e51b815260206004820152601e60248201527f427573207469636b657420696e646578206f7574206f6620626f756e647300006044820152606401610291565b6003818154811061037057610370611069565b90600052602060002090600802016005015482106103e25760405162461bcd60e51b815260206004820152602960248201527f53656174206e756d6265722069732067726561746572207468616e207365617460448201526820636170616369747960b81b6064820152608401610291565b600381815481106103f5576103f5611069565b9060005260206000209060080201600701828154811061041757610417611069565b60009182526020918290209181049091015460ff601f9092166101000a9004161561047d5760405162461bcd60e51b815260206004820152601660248201527514d9585d081a5cc8185b1c9958591e48189bdbdad95960521b6044820152606401610291565b6003818154811061049057610490611069565b90600052602060002090600802016004015434146104fe5760405162461bcd60e51b815260206004820152602560248201527f506c656173652073656e642074686520636f727265637420616d6f756e74206f6044820152640cc408aa8960db1b6064820152608401610291565b6000818152600260209081526040808320338452909152902054156105655760405162461bcd60e51b815260206004820152601e60248201527f596f75206861766520616c726561647920626f6f6b65642061207365617400006044820152606401610291565b6003818154811061057857610578611069565b60009182526020822060066008909202010180549161059683611095565b91905055506001600382815481106105b0576105b0611069565b906000526020600020906008020160070183815481106105d2576105d2611069565b6000918252602080832081830401805460ff601f9094166101000a938402191694151592909202939093179055828152600282526040808220338084529084529181902085905580519182529181018390529081018390527fa118b2ede63e92074aeb7dc8fd50527b816281c2e136e3084519254841d9617c9060600160405180910390a15050565b610663610c05565b600081116106bf5760405162461bcd60e51b8152602060048201526024808201527f53656174206361706163697479206d75737420626520677265617465722074686044820152630616e20360e41b6064820152608401610291565b6000821161070f5760405162461bcd60e51b815260206004820152601c60248201527f5072696365206d7573742062652067726561746572207468616e2030000000006044820152606401610291565b600061071c8260016110ac565b67ffffffffffffffff81111561073457610734610dd3565b60405190808252806020026020018201604052801561075d578160200160208202803683370190505b50604080516101008101825289815260208101899052908101879052606081018690526080810185905260a0810184905260c0810184905260e08101829052600380546001810182556000919091528151929350909160089091027fc2575a0e9e593c00f959f8c92f12db2869c3395a3b0502d05e2516446f71f85b019081906107e7908261114e565b50602082015160018201906107fc908261114e565b5060408201516002820190610811908261114e565b5060608201516003820190610826908261114e565b506080820151600482015560a0820151600582015560c0820151600682015560e08201518051610860916007840191602090910190610caf565b505060018054915060006108738361120e565b919050555050505050505050565b60606003828154811061089657610896611069565b906000526020600020906008020160070180548060200260200160405190810160405280929190818152602001828054801561091157602002820191906000526020600020906000905b825461010083900a900460ff1615158152602060019283018181049485019490930390920291018084116108e05790505b50505050509050919050565b610925610c05565b6001600160a01b03811661098a5760405162461bcd60e51b815260206004820152602660248201527f4f776e61626c653a206e6577206f776e657220697320746865207a65726f206160448201526564647265737360d01b6064820152608401610291565b61029a81610c5f565b600381815481106109a357600080fd5b90600052602060002090600802016000915090508060000180546109c6906110c5565b80601f01602080910402602001604051908101604052809291908181526020018280546109f2906110c5565b8015610a3f5780601f10610a1457610100808354040283529160200191610a3f565b820191906000526020600020905b815481529060010190602001808311610a2257829003601f168201915b505050505090806001018054610a54906110c5565b80601f0160208091040260200160405190810160405280929190818152602001828054610a80906110c5565b8015610acd5780601f10610aa257610100808354040283529160200191610acd565b820191906000526020600020905b815481529060010190602001808311610ab057829003601f168201915b505050505090806002018054610ae2906110c5565b80601f0160208091040260200160405190810160405280929190818152602001828054610b0e906110c5565b8015610b5b5780601f10610b3057610100808354040283529160200191610b5b565b820191906000526020600020905b815481529060010190602001808311610b3e57829003601f168201915b505050505090806003018054610b70906110c5565b80601f0160208091040260200160405190810160405280929190818152602001828054610b9c906110c5565b8015610be95780601f10610bbe57610100808354040283529160200191610be9565b820191906000526020600020905b815481529060010190602001808311610bcc57829003601f168201915b5050505050908060040154908060050154908060060154905087565b6000546001600160a01b031633146102af5760405162461bcd60e51b815260206004820181905260248201527f4f776e61626c653a2063616c6c6572206973206e6f7420746865206f776e65726044820152606401610291565b600080546001600160a01b038381166001600160a01b0319831681178455604051919092169283917f8be0079c531659141344cd1fd0a4f28419497f9722a3daafe3b4186f6b6457e09190a35050565b82805482825590600052602060002090601f01602090048101928215610d445791602002820160005b83821115610d1557835183826101000a81548160ff0219169083151502179055509260200192600101602081600001049283019260010302610cd8565b8015610d425782816101000a81549060ff0219169055600101602081600001049283019260010302610d15565b505b50610d50929150610d54565b5090565b5b80821115610d505760008155600101610d55565b80356001600160a01b0381168114610d8057600080fd5b919050565b60008060408385031215610d9857600080fd5b82359150610da860208401610d69565b90509250929050565b60008060408385031215610dc457600080fd5b50508035926020909101359150565b634e487b7160e01b600052604160045260246000fd5b600082601f830112610dfa57600080fd5b813567ffffffffffffffff80821115610e1557610e15610dd3565b604051601f8301601f19908116603f01168101908282118183101715610e3d57610e3d610dd3565b81604052838152866020858801011115610e5657600080fd5b836020870160208301376000602085830101528094505050505092915050565b60008060008060008060c08789031215610e8f57600080fd5b863567ffffffffffffffff80821115610ea757600080fd5b610eb38a838b01610de9565b97506020890135915080821115610ec957600080fd5b610ed58a838b01610de9565b96506040890135915080821115610eeb57600080fd5b610ef78a838b01610de9565b95506060890135915080821115610f0d57600080fd5b50610f1a89828a01610de9565b9350506080870135915060a087013590509295509295509295565b600060208284031215610f4757600080fd5b5035919050565b6020808252825182820181905260009190848201906040850190845b81811015610f88578351151583529284019291840191600101610f6a565b50909695505050505050565b600060208284031215610fa657600080fd5b610faf82610d69565b9392505050565b6000815180845260005b81811015610fdc57602081850181015186830182015201610fc0565b506000602082860101526020601f19601f83011685010191505092915050565b60e08152600061100f60e083018a610fb6565b8281036020840152611021818a610fb6565b905082810360408401526110358189610fb6565b905082810360608401526110498188610fb6565b6080840196909652505060a081019290925260c090910152949350505050565b634e487b7160e01b600052603260045260246000fd5b634e487b7160e01b600052601160045260246000fd5b6000816110a4576110a461107f565b506000190190565b808201808211156110bf576110bf61107f565b92915050565b600181811c908216806110d957607f821691505b6020821081036110f957634e487b7160e01b600052602260045260246000fd5b50919050565b601f82111561114957600081815260208120601f850160051c810160208610156111265750805b601f850160051c820191505b8181101561114557828155600101611132565b5050505b505050565b815167ffffffffffffffff81111561116857611168610dd3565b61117c8161117684546110c5565b846110ff565b602080601f8311600181146111b157600084156111995750858301515b600019600386901b1c1916600185901b178555611145565b600085815260208120601f198616915b828110156111e0578886015182559484019460019091019084016111c1565b50858210156111fe5787850151600019600388901b60f8161c191681555b5050505050600190811b01905550565b6000600182016112205761122061107f565b506001019056fea264697066735822122057579f2eafd9c32a6a70291ecec20f052139850c4bb4d1d8f80b9a5cb9ed0f8d64736f6c63430008110033",
  "devdoc": {
    "kind": "dev",
    "methods": {
      "owner()": {
        "details": "Returns the address of the current owner."
      },
      "renounceOwnership()": {
        "details": "Leaves the contract without owner. It will not be possible to call `onlyOwner` functions. Can only be called by the current owner. NOTE: Renouncing ownership will leave the contract without an owner, thereby disabling any functionality that is only available to the owner."
      },
      "transferOwnership(address)": {
        "details": "Transfers ownership of the contract to a new account (`newOwner`). Can only be called by the current owner."
      }
    },
    "version": 1
  },
  "userdoc": {
    "kind": "user",
    "methods": {},
    "version": 1
  },
  "storageLayout": {
    "storage": [
      {
        "astId": 7,
        "contract": "contracts/YourContract.sol:YourContract",
        "label": "_owner",
        "offset": 0,
        "slot": "0",
        "type": "t_address"
      },
      {
        "astId": 168,
        "contract": "contracts/YourContract.sol:YourContract",
        "label": "id",
        "offset": 0,
        "slot": "1",
        "type": "t_uint256"
      },
      {
        "astId": 174,
        "contract": "contracts/YourContract.sol:YourContract",
        "label": "seatOwner",
        "offset": 0,
        "slot": "2",
        "type": "t_mapping(t_uint256,t_mapping(t_address,t_uint256))"
      },
      {
        "astId": 178,
        "contract": "contracts/YourContract.sol:YourContract",
        "label": "busTickets",
        "offset": 0,
        "slot": "3",
        "type": "t_array(t_struct(BusTicket)165_storage)dyn_storage"
      }
    ],
    "types": {
      "t_address": {
        "encoding": "inplace",
        "label": "address",
        "numberOfBytes": "20"
      },
      "t_array(t_bool)dyn_storage": {
        "base": "t_bool",
        "encoding": "dynamic_array",
        "label": "bool[]",
        "numberOfBytes": "32"
      },
      "t_array(t_struct(BusTicket)165_storage)dyn_storage": {
        "base": "t_struct(BusTicket)165_storage",
        "encoding": "dynamic_array",
        "label": "struct YourContract.BusTicket[]",
        "numberOfBytes": "32"
      },
      "t_bool": {
        "encoding": "inplace",
        "label": "bool",
        "numberOfBytes": "1"
      },
      "t_mapping(t_address,t_uint256)": {
        "encoding": "mapping",
        "key": "t_address",
        "label": "mapping(address => uint256)",
        "numberOfBytes": "32",
        "value": "t_uint256"
      },
      "t_mapping(t_uint256,t_mapping(t_address,t_uint256))": {
        "encoding": "mapping",
        "key": "t_uint256",
        "label": "mapping(uint256 => mapping(address => uint256))",
        "numberOfBytes": "32",
        "value": "t_mapping(t_address,t_uint256)"
      },
      "t_string_storage": {
        "encoding": "bytes",
        "label": "string",
        "numberOfBytes": "32"
      },
      "t_struct(BusTicket)165_storage": {
        "encoding": "inplace",
        "label": "struct YourContract.BusTicket",
        "members": [
          {
            "astId": 149,
            "contract": "contracts/YourContract.sol:YourContract",
            "label": "from",
            "offset": 0,
            "slot": "0",
            "type": "t_string_storage"
          },
          {
            "astId": 151,
            "contract": "contracts/YourContract.sol:YourContract",
            "label": "to",
            "offset": 0,
            "slot": "1",
            "type": "t_string_storage"
          },
          {
            "astId": 153,
            "contract": "contracts/YourContract.sol:YourContract",
            "label": "date",
            "offset": 0,
            "slot": "2",
            "type": "t_string_storage"
          },
          {
            "astId": 155,
            "contract": "contracts/YourContract.sol:YourContract",
            "label": "duration",
            "offset": 0,
            "slot": "3",
            "type": "t_string_storage"
          },
          {
            "astId": 157,
            "contract": "contracts/YourContract.sol:YourContract",
            "label": "price",
            "offset": 0,
            "slot": "4",
            "type": "t_uint256"
          },
          {
            "astId": 159,
            "contract": "contracts/YourContract.sol:YourContract",
            "label": "seatCapacity",
            "offset": 0,
            "slot": "5",
            "type": "t_uint256"
          },
          {
            "astId": 161,
            "contract": "contracts/YourContract.sol:YourContract",
            "label": "availableSeat",
            "offset": 0,
            "slot": "6",
            "type": "t_uint256"
          },
          {
            "astId": 164,
            "contract": "contracts/YourContract.sol:YourContract",
            "label": "seatMap",
            "offset": 0,
            "slot": "7",
            "type": "t_array(t_bool)dyn_storage"
          }
        ],
        "numberOfBytes": "256"
      },
      "t_uint256": {
        "encoding": "inplace",
        "label": "uint256",
        "numberOfBytes": "32"
      }
    }
  }
}